:200000000EC015C014C013C012C011C010C00FC00EC00DC00CC00BC00AC009C008C0112492
:200020001FBECFE5D2E0DEBFCDBF02D011C1E8CF01D100C0FDD000C0FDD000C0F9D000C0C4
:20004000F9D000C0F5D000C0F5D000C0F1D000C0F1D000C0EDD000C0EDD000C0E9D000C098
:20006000E9D000C0E5D000C0E5D000C0E1D000C0E1D000C0DDD000C0DBD000C0DBD000C0F8
:20008000D7D000C0D7D000C0D3D000C0D3D000C0D1D000C0CDD000C0CDD000C0C9D000C058
:2000A000C7D000C0C7D000C0C3D000C0C3D000C0C1D000C0BDD000C0BBD000C0BBD000C0B8
:2000C000B9D000C0B5D000C0B3D000C0B3D000C0AFD000C0AFD000C0ADD000C0A9D000C018
:2000E000A9D000C0A5D000C0A3D000C0A3D000C09FD000C09FD000C09DD000C099D000C078
:2001000097D000C097D000C093D000C093D000C091D000C08DD000C08BD000C08BD000C0D7
:2001200089D000C085D000C083D000C083D000C081D000C07DD000C07BD000C07BD000C037
:2001400077D000C077D000C075D000C071D000C071D000C06DD000C06BD000C06BD000C097
:2001600067D000C067D000C063D000C063D000C061D000C05DD000C05DD000C059D000C0F7
:2001800059D000C055D000C055D000C051D000C051D000C04DD000C04BD000C04BD000C057
:2001A00047D000C047D000C043D000C043D000C041D000C03DD000C03DD000C039D000C0B7
:2001C00037D000C037D000C033D000C033D000C031D000C02DD000C02BD000C02BD000C017
:2001E00029D000C025D000C023D000C023D000C021D000C01DD000C01BD000C01BD000C077
:2002000017D000C017D000C015D000C011D000C00FD000C00FD000C00DD000C009D000C0D6
:2002200009D000C005D000C003D000C003D000CF08E102C000E000C007BB00C000C000C00E
:1402400000C000C000C000C000C000C000000895F894FFCF33
:00000001FF
